:020000040800F2
:100000000000022031B7000849AC000857AC0008D6
:100010005DAC000863AC000869AC0008000000009B
:10002000000000000000000000000000C184000883
:100030006FAC000800000000018700086987000815
:1000400081B7000881B7000881B7000881B70008B0
:1000500081B7000881B7000881B7000881B70008A0
:1000600081B7000881B7000881B7000881B7000890
:1000700081B7000881B7000881B7000881B7000880
:100080007DAC000881B7000881B7000881B700087F
:1000900081B7000881B7000881B7000881B7000860
:1000A00081B7000881B7000881B7000881B7000850
:1000B00081B7000881B7000881B7000881B7000840
:1000C00081B7000881B7000881B7000881B7000830
:1000D00081B7000881B7000881B7000881B7000820
:1000E00081B7000881B7000881B7000881B7000810
:1000F00081B7000881B7000881B7000881B7000800
:1001000081B7000881B7000881B7000881B70008EF
:1001100081B7000881B7000891AC000881B70008DA
:1001200081B7000881B7000881B7000881B70008CF
:1001300081B7000881B7000881B7000881B70008BF
:1001400081B7000881B7000881B70008A5AC000896
:1001500081B7000881B7000881B7000881B700089F
:1001600081B7000881B7000881B7000881B700088F
:1001700081B7000881B7000881B7000800000000BF
:0801800081B7000881B70008F7
:1001900010B5054C237833B9044B13B10448AFF3C1
:1001A00000800123237010BDE80100200000000042
:1001B0009CB9000808B5034B1BB103490348AFF3D2
:1001C000008008BD00000000EC0100209CB9000880
:1001D00053B94AB9002908BF00281CBF4FF0FF31AE
:1001E0004FF0FF3000F07AB9ADF1080C6DE904CEA4
:1001F00000F006F8DDF804E0DDE9022304B0704702
:100200002DE9F0478C460D460446089E002B51D13F
:100210008A4217466DD9B2FA82FEBEF1000F0BD0AA
:10022000CEF1200C01FA0EF520FA0CFC02FA0EF7C2
:100230004CEA050C00FA0EF44FEA174A250CBCFBF9
:10024000FAF81FFA87F90AFB18CC45EA0C4508FBB7
:1002500009F3AB420AD9ED1908F1FF3280F023818E
:10026000AB4240F22081A8F102083D44ED1AA4B24D
:10027000B5FBFAF00AFB105544EA054400FB09F906
:10028000A14509D9E41900F1FF3380F00A81A145A5
:1002900040F2078102383C44A4EB090440EA0840DC
:1002A0000021002E61D024FA0EF400233460736024
:1002B000BDE8F0878B4207D9002E54D0002186E894
:1002C00021000846BDE8F087B3FA83F1002940F029
:1002D0008E80AB4202D3824200F2FA80841A65EB30
:1002E00003050120AC46002E3FD086E81010BDE883
:1002F000F08712B90127B7FBF2F7B7FA87FEBEF114
:10030000000F34D1EB1B3A0C1FFA87FC0121B3FB21
:10031000F2F8250C02FB183345EA03450CFB08F301
:10032000AB4207D9ED1908F1FF3002D2AB4200F21F
:10033000D1808046ED1AA3B2B5FBF2F002FB105556
:1003400043EA05440CFB00FCA44507D9E41900F17D
:10035000FF3302D2A44500F2B8801846A4EB0C0487
:1003600040EA08409DE731463046BDE8F087CEF1CF
:10037000200405FA0EF307FA0EF720FA04F83A0CF7
:1003800025FA04F448EA0308B4FBF2F14FEA1845F1
:1003900002FB11441FFA87FC45EA044501FB0CF3FC
:1003A000AB4200FA0EF409D9ED1901F1FF3080F0EB
:1003B0008A80AB4240F2878002393D44EB1A1FFA33
:1003C00088F5B3FBF2F002FB103345EA034500FB6E
:1003D0000CF3AB4207D9ED1900F1FF386FD2AB42F5
:1003E0006DD902383D44EB1A40EA01418FE7C1F173
:1003F000200722FA07F88B4005FA01F448EA0303C4
:1004000020FA07FE4FEA134CFD404EEA040EB5FBFE
:10041000FCF94FEA1E440CFB19551FFA83F844EA15
:10042000054509FB08F4AC4202FA01F200FA01FAB0
:1004300008D9ED1809F1FF3043D2AC4241D9A9F1F6
:1004400002091D442D1B1FFA8EFEB5FBFCF00CFBB0
:1004500010554EEA054400FB08F8A04507D9E418FA
:1004600000F1FF3529D2A04527D902381C4440EAC3
:100470000940A4EB0804A0FB02894C45C6464D4642
:1004800015D312D056B1BAEB0E0364EB050404FA8F
:1004900007F7CB401F43CC40376074600021BDE8B4
:1004A000F0871846F8E69046E0E6C245EAD2B8EB97
:1004B000020E69EB03050138E4E72846D7E740461A
:1004C00091E78146BEE7014678E702383C4445E7BC
:1004D000084608E7A8F102083D442BE7704700BF33
:1004E00080B500AF0E4A0E4B1B6843F400731360D7
:1004F0000B4A0B4B1B6843F480631360084A084B9C
:100500001B6843F480731360032000F0F8F80020A8
:100510000AF040FB0AF0EAF90023184680BD00BF4C
:10052000003C024080B400AF064B1B781A46064BD5
:100530001B681344044A136000BFBD465DF8047B8A
:10054000704700BF04000020E451002080B400AFD9
:10055000034B1B681846BD465DF8047B704700BF1F
:10056000E451002080B584B000AF7860FFF7EEFF63
:10057000B8607B68FB60FB68B3F1FF3F05D0094BB7
:100580001B781A46FB681344FB6000BFFFF7DEFFD1
:100590000246BB68D21AFB689A42F7D300BF1037F5
:1005A000BD4680BD0400002080B485B000AF7860F7
:1005B0007B6803F00703FB600C4BDB68BB60BA6829
:1005C0004FF6FF031340BB60FB681A02BB6813437E
:1005D00043F0BF6343F40033BB60044ABB68D3609D
:1005E00000BF1437BD465DF8047B704700ED00E0A6
:1005F00080B400AF044BDB681B0A03F00703184606
:10060000BD465DF8047B704700ED00E080B483B028
:1006100000AF0346FB7197F90730002B0BDB09494C
:1006200097F907305B09FA7902F01F02012000FAFE
:1006300002F241F8232000BF0C37BD465DF8047B71
:10064000704700BF00E100E080B483B000AF034614
:100650003960FB7197F90730002B0ADB0D4997F9D8
:1006600007303A68D2B21201D2B20B4483F80023A9
:100670000AE00949FB7903F00F03043B3A68D2B260
:100680001201D2B20B441A7600BF0C37BD465DF89A
:10069000047B704700E100E000ED00E080B489B029
:1006A00000AFF860B9607A60FB6803F00703FB6194
:1006B000FB69C3F10703042B28BF0423BB61FB695B
:1006C0000433062B02D9FB69033B00E000237B6166
:1006D0000122BB6902FA03F35A1EBB681A407B6908
:1006E0009A4001217B6901FA03F3591E7B680B4094
:1006F000134318462437BD465DF8047B704780B528
:1007000082B000AF78607868FFF74EFF00BF08370F
:10071000BD4680BD80B586B000AF0346B9607A6043
:10072000FB7300237B61FFF763FF78617A68B96828
:100730007869FFF7B3FF024697F90F301146184664
:10074000FFF782FF00BF1837BD4680BD80B582B07D
:1007500000AF0346FB7197F907301846FFF756FFC5
:1007600000BF0837BD4680BD80B586B000AF786059
:1007700000237B61FFF7EAFE38617B68002B01D123
:10078000012399E07B68002283F834207B680222F1
:1007900083F835207B681B687A681268126822F03B
:1007A00001021A600FE0FFF7D1FE02463B69D31A3F
:1007B000052B08D97B6820225A657B68032283F8C1
:1007C0003520032378E07B681B681B6803F0010376
:1007D000002BE8D17B681B681B687B617A69384B0A
:1007E00013407B617B685A687B689B681A437B680F
:1007F000DB681A437B681B691A437B685B691A4391
:100800007B689B691A437B68DB691A437B681B6AB8
:1008100013437A6913437B617B685B6A042B07D1BE
:100820007B68DA6A7B681B6B13437A6913437B61CD
:100830007B681B687A691A607B681B685B697B61EF
:100840007B6923F007037B617B685B6A7A691343EA
:100850007B617B685B6A042B17D17B689B6A7A6932
:1008600013437B617B68DB6A002B0ED0786800F055
:100870003DFB0346002B08D07B6840225A657B680D
:10088000012283F83520012316E07B681B687A6912
:100890005A61786800F0F4FA0346FB607B68DB6D10
:1008A0003F229A40FB689A607B6800225A657B6809
:1008B000012283F83520002318461837BD4680BD35
:1008C0003F8010F080B584B000AF78607B68002B6B
:1008D00001D1012350E07B6893F83530DBB2022B65
:1008E00001D1022348E07B681B687A6812681268AD
:1008F00022F001021A607B681B6800221A607B6884
:100900001B6800225A607B681B6800229A607B6823
:100910001B680022DA607B681B6800221A617B6812
:100920001B6821225A61786800F0AAFA0346FB602E
:100930007B680022DA637B6800221A647B680022ED
:100940005A647B6800229A647B680022DA647B68C0
:1009500000221A657B68DB6D3F229A40FB689A6033
:100960007B6800225A657B68002283F835207B680B
:10097000002283F83420002318461037BD4680BD7E
:1009800080B586B000AFF860B9607A603B60002344
:10099000FB75FB689B6D3B61FB6893F83430012B62
:1009A00001D1022340E0FB68012283F83420FB6878
:1009B00093F83530DBB2012B2FD1FB68022283F88C
:1009C0003520FB6800225A653B687A68B968F86888
:1009D00000F028FAFB68DB6D3F229A403B699A6081
:1009E000FB681B68FA681268126842F016021A6007
:1009F000FB681B6C002B07D0FB681B68FA68126849
:100A0000126842F008021A60FB681B68FA681268F4
:100A1000126842F001021A6005E0FB68002283F8C8
:100A200034200223FB75FB7D18461837BD4680BD78
:100A300080B584B000AF78607B689B6DFB60FFF78A
:100A400085FDB8607B6893F83530DBB2022B08D0A7
:100A50007B6880225A657B68002283F8342001235A
:100A600052E07B681B687A681268126822F01602EE
:100A70001A607B681B687A681268526922F08002EB
:100A80005A617B681B6C002B03D17B689B6C002B2D
:100A900007D07B681B687A681268126822F0080227
:100AA0001A607B681B687A681268126822F001027B
:100AB0001A6013E0FFF74AFD0246BB68D31A052B04
:100AC0000CD97B6820225A657B68002283F8342089
:100AD0007B68032283F83520032315E07B681B68BD
:100AE0001B6803F00103002BE4D17B68DB6D3F2220
:100AF0009A40FB689A607B68002283F834207B6808
:100B0000012283F83520002318461037BD4680BDEA
:100B100080B586B000AF78600023BB60924B1B6845
:100B2000924AA2FB03239B0A7B617B689B6D3B611E
:100B30003B691B68FB607B68DB6D08229A40FB68A1
:100B40001340002B1AD07B681B681B6803F004035A
:100B5000002B13D07B681B687A681268126822F039
:100B600004021A607B68DB6D08229A403B699A6038
:100B70007B685B6D43F001027B685A657B68DB6DC7
:100B800001229A40FB681340002B12D07B681B683F
:100B90005B6903F08003002B0BD07B68DB6D0122C7
:100BA0009A403B699A607B685B6D43F002027B6808
:100BB0005A657B68DB6D04229A40FB681340002B6A
:100BC00012D07B681B681B6803F00203002B0BD05C
:100BD0007B68DB6D04229A403B699A607B685B6DA1
:100BE00043F004027B685A657B68DB6D10229A40F3
:100BF000FB681340002B43D07B681B681B6803F025
:100C00000803002B3CD07B68DB6D10229A403B69C7
:100C10009A607B681B681B6803F48023002B18D044
:100C20007B681B681B6803F40023002B08D17B68DA
:100C30001B6C002B24D07B681B6C786898471FE0E6
:100C40007B689B6C002B1BD07B689B6C78689847FB
:100C500016E07B681B681B6803F48073002B07D1C8
:100C60007B681B687A681268126822F008021A60B2
:100C70007B681B6C002B03D07B681B6C78689847E3
:100C80007B68DB6D20229A40FB681340002B00F04C
:100C90008E807B681B681B6803F01003002B00F03C
:100CA00086807B68DB6D20229A403B699A607B6876
:100CB00093F83530DBB2052B36D17B681B687A6838
:100CC0001268126822F016021A607B681B687A6844
:100CD0001268526922F080025A617B681B6C002BFB
:100CE00003D17B689B6C002B07D07B681B687A68FC
:100CF0001268126822F008021A607B68DB6D3F22DE
:100D00009A403B699A607B68002283F834207B68B4
:100D1000012283F835207B681B6D002B7DD07B681A
:100D20001B6D7868984778E07B681B681B6803F444
:100D30008023002B1CD07B681B681B6803F40023F6
:100D4000002B08D17B685B6C002B30D07B685B6C20
:100D5000786898472BE07B68DB6B002B27D07B689B
:100D6000DB6B7868984722E020010020B5814E1B9C
:100D70007B681B681B6803F48073002B0FD17B68B2
:100D80001B687A681268126822F010021A607B6889
:100D9000002283F834207B68012283F835207B68A9
:100DA000DB6B002B03D07B68DB6B786898477B6834
:100DB0005B6D002B32D07B685B6D03F00103002B71
:100DC00022D07B68052283F835207B681B687A680F
:100DD0001268126822F001021A60BB680133BB601E
:100DE0007A69934207D87B681B681B6803F001038C
:100DF000002BF2D100E000BF7B68002283F8342092
:100E00007B68012283F835207B68DB6C002B05D0E2
:100E10007B68DB6C7868984700E000BF1837BD46F8
:100E200080BD00BF80B485B000AFF860B9607A6063
:100E30003B60FB681B68FA681268126822F4802223
:100E40001A60FB681B683A685A60FB689B68402B15
:100E500008D1FB681B687A689A60FB681B68BA68EF
:100E6000DA6007E0FB681B68BA689A60FB681B6879
:100E70007A68DA6000BF1437BD465DF8047B7047BE
:100E800080B485B000AF78607B681B68DBB2103B34
:100E9000144AA2FB03231B09FB60134AFB6813449B
:100EA0001B781A467B68DA65FB68032B09D97B68D7
:100EB0001B6823F47F7323F003031A1D7B689A6574
:100EC00007E07B681B6823F47F7323F003037A68D1
:100ED00093657B689B6D18461437BD465DF8047BAF
:100EE000704700BFABAAAAAA44BA000880B485B074
:100EF00000AF78600023FB737B689B6ABB607B68F4
:100F00009B69002B1FD1BB68032B55D801A252F857
:100F100023F000BF250F0008370F0008250F000839
:100F2000B90F00087B68DB6A03F08073002B45D0A3
:100F30000123FB7342E07B68DB6AB3F1C07F3FD1E2
:100F40000123FB733CE07B689B69B3F5005F21D113
:100F5000BB68032B36D801A252F823F06D0F0008AE
:100F6000730F00086D0F0008850F00080123FB7345
:100F70002FE07B68DB6A03F08073002B24D0012311
:100F8000FB7321E07B68DB6AB3F1C07F1ED10123D4
:100F9000FB731BE0BB68022B02D9032B03D018E0C4
:100FA0000123FB7315E07B68DB6A03F08073002B81
:100FB0000ED00123FB730BE000BF0AE000BF08E086
:100FC00000BF06E000BF04E000BF02E000BF00E099
:100FD00000BFFB7B18461437BD465DF8047B7047A5
:100FE00080B489B000AF7860396000237B61002352
:100FF0003B610023BB610023FB616BE10122FB69C4
:1010000002FA03F37B613B681A687B6913403B611A
:101010003A697B699A4240F05A813B685B68012BD0
:101020000BD03B685B68022B07D03B685B68112BD9
:1010300003D03B685B68122B30D17B689B68BB6137
:10104000FB695B00032202FA03F3DB43BA69134036
:10105000BB613B68DA68FB695B0002FA03F3BA69BB
:101060001343BB617B68BA699A607B685B68BB614C
:101070000122FB6902FA03F3DB43BA691340BB6147
:101080003B685B681B0903F00102FB6902FA03F38A
:10109000BA691343BB617B68BA695A607B68DB68D5
:1010A000BB61FB695B00032202FA03F3DB43BA690D
:1010B0001340BB613B689A68FB695B0002FA03F36B
:1010C000BA691343BB617B68BA69DA603B685B68E5
:1010D000022B03D03B685B68122B23D1FB69DA0833
:1010E0007B68083253F82230BB61FB6903F00703C9
:1010F0009B000F2202FA03F3DB43BA691340BB6182
:101100003B681A69FB6903F007039B0002FA03F3CB
:10111000BA691343BB61FB69DA087B680832B969B5
:1011200043F822107B681B68BB61FB695B000322EC
:1011300002FA03F3DB43BA691340BB613B685B68A7
:1011400003F00302FB695B0002FA03F3BA6913437D
:10115000BB617B68BA691A603B685B6803F08053C7
:10116000002B00F0B4800023FB605F4A5E4B5B6C99
:1011700043F4804353645C4B5B6C03F48043FB603B
:10118000FB685A4AFB699B08023352F82330BB6163
:10119000FB6903F003039B000F2202FA03F3DB4316
:1011A000BA691340BB617B68514A93422BD07B687C
:1011B000504A934225D07B684F4A93421FD07B68A8
:1011C0004E4A934219D07B684D4A934213D07B68B4
:1011D0004C4A93420DD07B684B4A934207D07B68C0
:1011E0004A4A934201D107230EE008230CE006236C
:1011F0000AE0052308E0042306E0032304E00223B9
:1012000002E0012300E00023FA6902F003029200E9
:101210009340BA691343BB613449FB699B080233AD
:10122000BA6941F823203A4B1B68BB613B69DB4339
:10123000BA691340BB613B685B6803F48033002BE1
:1012400003D0BA693B691343BB61314ABB69136080
:101250002F4B5B68BB613B69DB43BA691340BB61E1
:101260003B685B6803F40033002B03D0BA693B6929
:101270001343BB61264ABB695360254B9B68BB6126
:101280003B69DB43BA691340BB613B685B6803F4AD
:101290008013002B03D0BA693B691343BB611C4A1E
:1012A000BB6993601A4BDB68BB613B69DB43BA697E
:1012B0001340BB613B685B6803F40013002B03D051
:1012C000BA693B691343BB61114ABB69D360FB69CF
:1012D0000133FB61FB690F2B7FF690AE00BF243713
:1012E000BD465DF8047B704700380240003801407D
:1012F000000002400004024000080240000C0240CE
:10130000001002400014024000180240001C02407D
:10131000003C014080B487B000AF786039600023A2
:101320003B610023FB600023BB6000237B61CEE0B8
:1013300001227B6902FA03F33B613A683B6913407F
:10134000FB60FA683B699A4240F0BE80654A7B695F
:101350009B08023352F82330BB607B6903F0030320
:101360009B000F2202FA03F3BA681340BB607B684C
:101370005D4A93422BD07B685C4A934225D07B68C0
:101380005B4A93421FD07B685A4A934219D07B68CC
:10139000594A934213D07B68584A93420DD07B68D8
:1013A000574A934207D07B68564A934201D107239C
:1013B0000EE008230CE006230AE0052308E00423DE
:1013C00006E0032304E0022302E0012300E00023FF
:1013D0007A6902F00302920003FA02F2BB689A42B1
:1013E00032D14949484B1A68FB68DB4313400B6014
:1013F0004549454B5A68FB68DB4313404B60424903
:10140000414B9A68FB68DB4313408B603E493E4B7F
:10141000DA68FB68DB431340CB607B6903F00303AE
:101420009B000F2202FA03F3BB602E487B699B08E6
:101430002C497A699208023251F82210BA68D243D4
:101440000A40023340F823207B681A687B695B00FE
:10145000032101FA03F3DB431A407B681A607B69BE
:10146000DA087B69D9087B68083153F821107B6959
:1014700003F007039B000F2000FA03F3DB4319403E
:101480007B68083243F822107B68DA687B695B006E
:10149000032101FA03F3DB431A407B68DA607B68BF
:1014A0005A6801217B6901FA03F3DB431A407B6828
:1014B0005A607B689A687B695B00032101FA03F339
:1014C000DB431A407B689A607B6901337B617B69EF
:1014D0000F2B7FF62DAF00BF1C37BD465DF8047B98
:1014E000704700BF00380140000002400004024085
:1014F00000080240000C02400010024000140240AC
:1015000000180240001C0240003C014080B483B03F
:1015100000AF78600B467B8013467B707B78002B96
:1015200003D07A887B689A6103E07B881A047B6821
:101530009A6100BF0C37BD465DF8047B704780B4EC
:1015400083B000AF78600B467B807B685A697B88EC
:101550001A407B889A4204D17B881A047B689A617E
:1015600002E07A887B689A6100BF0C37BD465DF85F
:10157000047B704790B585B000AF78607B68002B26
:1015800001D101231FE17B6893F83D30DBB2002BD2
:1015900006D17B68002283F83C20786809F0D2F9F4
:1015A0007B68242283F83D207B681B687A68126878
:1015B000126822F001021A607B681B687A68126860
:1015C000126842F400421A607B681B687A681268ED
:1015D000126822F400421A6003F0A0FBF8607B68F6
:1015E0005B687B4A934207D8FB687A4A934294BF70
:1015F00001230023DBB206E0FB68774A934294BFE5
:1016000001230023DBB2002B01D00123DBE0FB68C8
:10161000724AA2FB03239B0CBB607B681B687A6841
:101620001268526822F03F01BA680A435A607B6828
:101630001A687B681B681B6A23F03F017B685B6844
:101640006348834202D8BB68013309E0BB684FF4AA
:10165000967000FB03F36248A0FB03039B09013370
:101660000B4313627B6818687B681B68DB6923F493
:101670004F4222F0FF027B685B6855498B420DD8D0
:10168000FB68591E7B685B685B00B1FBF3F30133B9
:10169000C3F30B03042B38BF04234FE07B689B6824
:1016A000002B11D1FB685C1E7B6859680B465B0000
:1016B0000B44B4FBF3F30133C3F30B03002B0CBF58
:1016C00001230023DBB212E0FB685C1E7B685968D3
:1016D0000B469B000B4499000B44B4FBF3F301331E
:1016E000C3F30B03002B0CBF01230023DBB2002B41
:1016F00001D0012322E07B689B68002B0ED1FB68A0
:101700005C1E7B6859680B465B000B44B4FBF3F32B
:101710000133C3F30B0343F400430FE0FB685C1E8B
:101720007B6859680B469B000B4499000B44B4FB43
:10173000F3F30133C3F30B0343F440431343C36197
:101740007B681B687A681268126822F0C0017A68A8
:10175000D0697A68126A02430A431A607B681A6881
:101760007B681B689B6823F4034323F0FF037968BD
:1017700008697968C96801430B4393607B681B68FB
:101780007A681268D26822F0FF017A6850697A6834
:10179000926902430A43DA607B681B687A681268C0
:1017A000126842F001021A607B6800221A647B68AA
:1017B000202283F83D207B6800221A637B68002288
:1017C00083F83E20002318461437BD4690BD00BF65
:1017D000A08601007F841E00FF083D0083DE1B43BE
:1017E000D34D621080B588B002AFF860084611464C
:1017F0001A4603467B810B463B811346FB80FEF76E
:10180000A5FE7861FB6893F83D30DBB2202B40F0F9
:10181000D9807B690093192301226D49F86800F093
:101820007BFC0346002B01D00223CCE0FB6893F83D
:101830003C30012B01D10223C5E0FB68012283F873
:101840003C20FB681B681B6803F00103012B07D0D9
:10185000FB681B68FA681268126842F001021A609D
:10186000FB681B68FA681268126822F400621A604A
:10187000FB68212283F83D20FB68402283F83E204C
:10188000FB6800221A64FB683A6A5A62FB68BA8CE9
:101890005A85FB685B8D9AB2FB681A85FB684D4AD6
:1018A000DA62F8883A8979897B690193BB6A009387
:1018B0000346F86800F0B6FA0346002B52D0012325
:1018C00081E07A69B96AF86800F0FCFC0346002BF5
:1018D0000DD0FB681B6C042B07D1FB681B68FA68F2
:1018E0001268126842F400721A6001236BE0FB6810
:1018F0001B68FA68526A12781A61FB685B6A5A1CA4
:10190000FB685A62FB681B8D013B9AB2FB681A8523
:10191000FB685B8D9BB2013B9AB2FB685A85FB6802
:101920001B685B6903F00403042B1BD1FB681B8D50
:10193000002B17D0FB681B68FA68526A12781A618C
:10194000FB685B6A5A1CFB685A62FB681B8D013B93
:101950009AB2FB681A85FB685B8D9BB2013B9AB219
:10196000FB685A85FB681B8D002BAAD17A69B96A7E
:10197000F86800F0E8FC0346002B0DD0FB681B6CF8
:10198000042B07D1FB681B68FA681268126842F4DE
:1019900000721A60012316E0FB681B68FA6812687F
:1019A000126842F400721A60FB68202283F83D201E
:1019B000FB68002283F83E20FB68002283F83C206D
:1019C000002300E0022318461837BD4680BD00BF43
:1019D000020010000000FFFF80B58CB002AFF8607D
:1019E000084611461A4603467B810B463B81134647
:1019F000FB80FEF7ABFD7862FB6893F83D30DBB20D
:101A0000202B40F008827B6A0093192301227B4936
:101A1000F86800F081FB0346002B01D00223FBE1B4
:101A2000FB6893F83C30012B01D10223F4E1FB6801
:101A3000012283F83C20FB681B681B6803F001034C
:101A4000012B07D0FB681B68FA681268126842F025
:101A500001021A60FB681B68FA681268126822F4B7
:101A600000621A60FB68222283F83D20FB68402256
:101A700083F83E20FB6800221A64FB683A6B5A62C6
:101A8000FB68BA8E5A85FB685B8D9AB2FB681A8533
:101A9000FB685B4ADA62F8883A8979897B6A019344
:101AA000BB6B00930346F86800F050FA0346002B26
:101AB00001D00123B0E1FB681B8D002B13D1002363
:101AC0003B62FB681B685B693B62FB681B689B6948
:101AD0003B623B6AFB681B68FA681268126842F452
:101AE00000721A6084E1FB681B8D012B1BD1FB681F
:101AF0001B68FA681268126822F480621A60002378
:101B0000FB61FB681B685B69FB61FB681B689B6989
:101B1000FB61FB69FB681B68FA681268126842F493
:101B200000721A6064E1FB681B8D022B1BD1FB68FD
:101B30001B68FA681268126822F480621A60FB68F7
:101B40001B68FA681268126842F400621A60002387
:101B5000BB61FB681B685B69BB61FB681B689B69B9
:101B6000BB61BB6944E100237B61FB681B685B6967
:101B70007B61FB681B689B697B617B6938E1FB6863
:101B80001B8D032B00F2F180FB681B8D012B23D1F1
:101B90007A6AB96BF86800F017FC0346002B01D095
:101BA000012339E1FB685B6AFA6812681269D2B2F4
:101BB0001A70FB685B6A5A1CFB685A62FB681B8DD3
:101BC000013B9AB2FB681A85FB685B8D9BB2013BB7
:101BD0009AB2FB685A850BE1FB681B8D022B4ED134
:101BE0007B6A0093BB6B00220649F86800F094FA08
:101BF0000346002B08D001230EE100BF02001000B5
:101C00000000FFFF04000100FB681B68FA6812680F
:101C1000126842F400721A60FB685B6AFA68126824
:101C20001269D2B21A70FB685B6A5A1CFB685A626E
:101C3000FB681B8D013B9AB2FB681A85FB685B8DC4
:101C40009BB2013B9AB2FB685A85FB685B6AFA68F3
:101C500012681269D2B21A70FB685B6A5A1CFB6880
:101C60005A62FB681B8D013B9AB2FB681A85FB68C0
:101C70005B8D9BB2013B9AB2FB685A85B8E07B6AE8
:101C80000093BB6B00226649F86800F045FA0346F2
:101C9000002B01D00123BFE0FB681B68FA681268C3
:101CA000126822F480621A60FB685B6AFA68126844
:101CB0001269D2B21A70FB685B6A5A1CFB685A62DE
:101CC000FB681B8D013B9AB2FB681A85FB685B8D34
:101CD0009BB2013B9AB2FB685A857B6A0093BB6B4F
:101CE00000224F49F86800F017FA0346002B01D094
:101CF000012391E0FB681B68FA681268126842F4DD
:101D000000721A60FB685B6AFA6812681269D2B2E4
:101D10001A70FB685B6A5A1CFB685A62FB681B8D71
:101D2000013B9AB2FB681A85FB685B8D9BB2013B55
:101D30009AB2FB685A85FB685B6AFA681268126996
:101D4000D2B21A70FB685B6A5A1CFB685A62FB6865
:101D50001B8D013B9AB2FB681A85FB685B8D9BB2B9
:101D6000013B9AB2FB685A8542E07A6AB96BF8681F
:101D700000F02AFB0346002B01D001234CE0FB6856
:101D80005B6AFA6812681269D2B21A70FB685B6A01
:101D90005A1CFB685A62FB681B8D013B9AB2FB68B8
:101DA0001A85FB685B8D9BB2013B9AB2FB685A8532
:101DB000FB681B685B6903F00403042B18D1FB6804
:101DC0005B6AFA6812681269D2B21A70FB685B6AC1
:101DD0005A1CFB685A62FB681B8D013B9AB2FB6878
:101DE0001A85FB685B8D9BB2013B9AB2FB685A85F2
:101DF000FB681B8D002B7FF4C2AEFB68202283F8AA
:101E00003D20FB68002283F83E20FB68002283F817
:101E10003C20002300E0022318462837BD4680BD41
:101E20000400010080B588B002AFF8600846114692
:101E30001A4603467B810B463B811346FB80FB68B9
:101E40001B68FA681268126842F480721A607B6A32
:101E500000933B6A00224FF00111F86800F05CF932
:101E60000346002B0CD0FB681B681B6803F48073CF
:101E7000002B03D0FB684FF400721A6403235EE06A
:101E8000FB681B687A89D2B202F0FE021A617B6A93
:101E90003A6A2D49F86800F096F90346002B01D004
:101EA00001234CE000237B61FB681B685B697B615D
:101EB000FB681B689B697B617B697A6A396AF86891
:101EC00000F000FA0346002B0DD0FB681B6C042BBE
:101ED00007D1FB681B68FA681268126842F4007246
:101EE0001A6001232BE0FB88012B05D1FB681B68DE
:101EF0003A89D2B21A6121E0FB681B683A89120A5A
:101F000092B2D2B21A617A6A396AF86800F0DAF9E4
:101F10000346002B0DD0FB681B6C042B07D1FB681C
:101F20001B68FA681268126842F400721A60012392
:101F300005E0FB681B683A89D2B21A610023184693
:101F40001837BD4680BD00BF0200010080B588B0D3
:101F500002AFF860084611461A4603467B810B46DD
:101F60003B811346FB80FB681B68FA6812681268A5
:101F700042F480621A60FB681B68FA681268126893
:101F800042F480721A607B6A00933B6A00224FF031
:101F90000111F86800F0C0F80346002B0CD0FB6874
:101FA0001B681B6803F48073002B03D0FB684FF49D
:101FB00000721A640323A8E0FB681B687A89D2B216
:101FC00002F0FE021A617B6A3A6A5249F86800F030
:101FD000FAF80346002B01D0012396E000237B6131
:101FE000FB681B685B697B61FB681B689B697B61A5
:101FF0007B697A6A396AF86800F064F90346002B55
:102000000DD0FB681B6C042B07D1FB681B68FA68BA
:102010001268126842F400721A60012375E0FB88AE
:10202000012B05D1FB681B683A89D2B21A6121E005
:10203000FB681B683A89120A92B2D2B21A617A6AB4
:10204000396AF86800F03EF90346002B0DD0FB68B2
:102050001B6C042B07D1FB681B68FA6812681268B6
:1020600042F400721A6001234FE0FB681B683A8952
:10207000D2B21A617A6A396AF86800F023F9034625
:10208000002B0DD0FB681B6C042B07D1FB681B6871
:10209000FA681268126842F400721A60012334E090
:1020A000FB681B68FA681268126842F480721A6052
:1020B0007B6A00933B6A00224FF00111F86800F040
:1020C0002BF80346002B0CD0FB681B681B6803F43D
:1020D0008073002B03D0FB684FF400721A64032353
:1020E00013E0FB681B687A89D2B242F00102D2B2D7
:1020F0001A617B6A3A6A0749F86800F064F8034697
:10210000002B01D0012300E0002318461837BD46FC
:1021100080BD00BF0200010080B584B000AFF86050
:10212000B9603B601346FB7125E03B68B3F1FF3FAC
:1021300021D0FEF70BFA0246BB69D21A3B689A42DD
:1021400002D83B68002B16D1FB6800221A63FB689B
:10215000202283F83D20FB68002283F83E20FB68A4
:102160001B6C43F02002FB681A64FB68002283F8B2
:102170003C20012323E0BB681B0CDBB2012B0DD1FB
:10218000FB681B685B69DA43BB6813409BB2002B9A
:102190000CBF01230023DBB21A460CE0FB681B686E
:1021A0009B69DA43BB6813409BB2002B0CBF012331
:1021B0000023DBB21A46FB799A42B6D000231846B8
:1021C0001037BD4680BD80B584B000AFF860B960FF
:1021D0007A603B6051E0FB681B685B6903F48063D5
:1021E000B3F5806F23D1FB681B68FA681268126828
:1021F00042F400721A60FB681B686FF480625A61D7
:10220000FB6800221A63FB68202283F83D20FB68EC
:10221000002283F83E20FB681B6C43F00402FB683D
:102220001A64FB68002283F83C20012346E07B68A7
:10223000B3F1FF3F21D0FEF789F902463B68D21A7D
:102240007B689A4202D87B68002B16D1FB6800227B
:102250001A63FB68202283F83D20FB68002283F884
:102260003E20FB681B6C43F02002FB681A64FB688D
:10227000002283F83C20012320E0BB681B0CDBB26A
:10228000012B0CD1FB681B685B69DA43BB68134008
:102290009BB2002B14BF01230023DBB20BE0FB68D1
:1022A0001B689B69DA43BB6813409BB2002B14BFC9
:1022B00001230023DBB2002B8DD1002318461037F9
:1022C000BD4680BD80B584B000AFF860B9607A606B
:1022D0002DE0F86800F0CEF80346002B01D0012372
:1022E0002DE0BB68B3F1FF3F21D0FEF72FF9024686
:1022F0007B68D21ABB689A4202D8BB68002B16D101
:10230000FB6800221A63FB68202283F83D20FB68EB
:10231000002283F83E20FB681B6C43F02002FB6820
:102320001A64FB68002283F83C20012307E0FB6865
:102330001B685B6903F08003802BCAD10023184619
:102340001037BD4680BD80B584B000AFF860B9607D
:102350007A602DE0F86800F08DF80346002B01D07C
:1023600001232DE0BB68B3F1FF3F21D0FEF7EEF86B
:1023700002467B68D21ABB689A4202D8BB68002B1F
:1023800016D1FB6800221A63FB68202283F83D20E7
:10239000FB68002283F83E20FB681B6C43F02002A0
:1023A000FB681A64FB68002283F83C20012307E0E5
:1023B000FB681B685B6903F00403042BCAD100238C
:1023C00018461037BD4680BD80B584B000AFF860B8
:1023D000B9607A6042E0FB681B685B6903F0100338
:1023E000102B19D1FB681B686FF010025A61FB6853
:1023F00000221A63FB68202283F83D20FB6800223C
:1024000083F83E20FB681A6CFB681A64FB680022A4
:1024100083F83C20012329E0FEF798F802467B6808
:10242000D21ABB689A4202D8BB68002B16D1FB684F
:1024300000221A63FB68202283F83D20FB680022FB
:1024400083F83E20FB681B6C43F02002FB681A6493
:10245000FB68002283F83C20012307E0FB681B682F
:102460005B6903F04003402BB5D1002318461037B9
:10247000BD4680BD80B483B000AF78607B681B68C8
:102480005B6903F48063B3F5806F1BD17B681B68C5
:102490006FF480625A617B6800221A637B68202295
:1024A00083F83D207B68002283F83E207B681B6C0C
:1024B00043F004027B681A647B68002283F83C20A6
:1024C000012300E0002318460C37BD465DF8047B6D
:1024D0007047000080B588B000AF78607B68002B43
:1024E00001D1012327E17B6893F84130DBB2002B57
:1024F00009D17B68002283F840207B68904A5A63A8
:10250000786808F067FA7B68022283F841207B68CC
:102510001A687B681B68DB6923F47B6323F00F0375
:10252000D3617B681B6802221A627B685B69022B9D
:1025300060D07B68DB68002B02D110237B6101E057
:1025400020237B617B689B68202B02D87B695B0022
:102550007B61012002F036FDF8607B681B69B3F5F2
:10256000007F25D17B68DB68002B10D07B699B0046
:10257000FA68B2FBF3F213469B0013445B001A4661
:102580007B685B69B2FBF3F305333B611FE07B695A
:10259000DB00FA68B2FBF3F213469B0013445B00C6
:1025A0001A467B685B69B2FBF3F305333B610EE0CF
:1025B000FA687B69B2FBF3F213469B0013445B009D
:1025C0001A467B685B69B2FBF3F305333B613B69F9
:1025D0005C4AA2FB0323DB083B613B6903F0010378
:1025E000BB613A69BB69D31A5B08FB61BB691B021B
:1025F000BB6103E00223FB610023BB61FB69012B8C
:1026000002D9FB69FF2B07D97B685B6C43F0100292
:102610007B685A6401238EE07B681B687A681169C5
:10262000BA691143FA690A431A627B681A687B68BF
:102630001B68DB6923F47B6323F00F037968486828
:102640007968896808437968C9680843796889693D
:1026500001430B4343F40063D3617B681B6A012B86
:1026600061D17B68384A5A637B681B68374A93425A
:1026700001D1374A01E04FF040227B681B683349A3
:102680008B4201D1324B01E04FF04023DB6923F450
:102690007B6323F00F03D3617B681B682B4A934253
:1026A00001D12B4B01E04FF0402302221A627B68DC
:1026B0001B68264A934201D1254B01E04FF040238D
:1026C000DB697B817B685B68B3F5007F03D07B6847
:1026D0005B68002B03D14FF480733B6101E0002362
:1026E0003B613B699AB27B689B6899B27B68DB6807
:1026F00098B27B689B699BB203439BB20B439BB22E
:1027000013439AB27B8913439BB243F400637B81EA
:102710007B681B680D4A934201D10D4B01E04FF0DD
:1027200040237A89DA617B6800225A647B6801223F
:1027300083F84120002318462037BD4680BD00BFE6
:10274000B92B0008CDCCCCCCCD2C000800380040F3
:102750000034004080B582B000AF78607B68002B09
:1027600001D101231AE07B68022283F841207B68B3
:102770001B687A681268D26922F48062DA6178682C
:1027800008F0DEF97B6800225A647B68002283F837
:1027900041207B68002283F8402000231846083738
:1027A000BD4680BD80B586B000AFF860B960134605
:1027B000FB80BB68002B02D0FB88002B01D10123DA
:1027C0008EE0FB6893F84030DBB2012B01D102238D
:1027D00086E0FB68012283F84020FB6893F84130D3
:1027E000DBB2012B05D0FB68002283F840200223D6
:1027F00076E0FB68032283F84120FB6800225A64DC
:10280000FB68BA685A62FB681B68DB6903F0070360
:102810007B617B69032B02D07B69052B0AD1FB8886
:102820005B009AB2FB681A85FB885B009AB2FB6872
:102830005A8505E0FB68FA881A85FB68FA885A858C
:10284000FB689B6B284A1A64FB689B6B274ADA6318
:10285000FB689B6B264ADA64FB68986BFB685B6AD3
:102860001946FB681B680C331A46FB681B8D9BB22C
:10287000FEF786F80346002B0FD0FB685B6C43F035
:102880000802FB685A64FB68012283F84120FB6858
:10289000002283F84020012322E0FB681B68DB69EB
:1028A00003F48063002B07D1FB681B68FA68126889
:1028B000D26942F48062DA61FB681B685B6803F0EE
:1028C0000203002B07D1FB681B68FA681268526884
:1028D00042F002025A60FB68002283F84020002385
:1028E00018461837BD4680BD972A0008552A0008AB
:1028F000B32A000880B584B000AF78600023FB7372
:102900007B681B687A681268526822F002025A607B
:102910007B681B687A681268526822F001025A606C
:102920007B689B6B002B0FD07B689B6B1846FEF778
:102930007FF80346002B07D07B685B6C43F00802EE
:102940007B685A640123FB737B68DB6B002B0FD021
:102950007B68DB6B1846FEF76BF80346002B07D04D
:102960007B685B6C43F008027B685A640123FB734D
:102970007B6893F84130DBB2052B41D17B681B6843
:10298000284A934201D1284B01E04FF040237A6856
:10299000126824498A4201D1234A01E04FF04022C3
:1029A000526822F002025A607B681B681D4A9342FB
:1029B00001D11D4B01E04FF040237A68126819499C
:1029C0008A4201D1184A01E04FF04022526822F0B9
:1029D00001025A607B681B68124A934201D1124B74
:1029E00001E04FF040237A6812680E498A4201D113
:1029F0000D4A01E04FF04022D26922F48062DA6190
:102A00007B681B687A681268D26922F48062DA6196
:102A10007B68012283F84120FB7B18461037BD46B6
:102A200080BD00BF003800400034004080B483B057
:102A300000AF786000BF0C37BD465DF8047B70477F
:102A400080B483B000AF786000BF0C37BD465DF83E
:102A5000047B704780B584B000AF78607B689B6B67
:102A6000FB607B68DB69002B0ED1FB681B68FA6892
:102A70001268526822F002025A60FB6800225A85EE
:102A8000FB68012283F84120F86807F0D7FA00BFFD
:102A90001037BD4680BD80B584B000AF78607B68DC
:102AA0009B6BFB60F86807F0DBFA00BF1037BD4690
:102AB00080BD80B584B000AF78607B689B6BFB60A5
:102AC000FB681B68FA681268526822F003025A60B9
:102AD000FB6800225A85FB6800225A86FB680122A7
:102AE00083F84120FB685B6C43F00802FB685A6482
:102AF000F868FFF7A5FF00BF1037BD4680BD80B561
:102B000082B000AF78607B681B687A68526A12886E
:102B1000DA607B685B6A9A1C7B685A627B685B8DB3
:102B20009BB2013B9AB27B685A857B685B8D9BB2F6
:102B3000002B0ED17B681B687A681268526822F0FD
:102B4000A0025A607B68012283F84120786807F070
:102B500075FA00BF0837BD4680BD80B582B000AFB2
:102B600078607B68DB6A7A681268D26892B21A80F1
:102B70007B68DB6A9A1C7B68DA627B685B8E9BB23F
:102B8000013B9AB27B685A867B685B8E9BB2002BB6
:102B90000ED17B681B687A681268526822F0600266
:102BA0005A607B68012283F841207868FFF73EFF76
:102BB00000BF0837BD4680BD80B586B000AF7860E5
:102BC0007B681B689B687B617B6893F84130DBB254
:102BD000042B3AD17B6903F00103012B09D17B68F7
:102BE0001B685B6803F04003402B02D17868FFF755
:102BF000B4FF7B6903F04003402B26D17B681B6840
:102C00005B6803F02003202B1FD17B681B687A6868
:102C10001268526822F060025A6000233B617B68B0
:102C20001B68DB683B617B681B689B683B613B6999
:102C30007B68012283F841207B685B6C43F00202D1
:102C40007B685A647868FFF7FBFE7B6893F8413035
:102C5000DBB2032B36D17B6903F00203022B09D1CF
:102C60007B681B685B6803F08003802B02D1786867
:102C7000FFF745FF7B6903F00803082B22D17B682F
:102C80001B685B6803F02003202B1BD17B681B684B
:102C90007A681268526822F0A0025A600023FB6032
:102CA0007B681B689B68FB60FB687B68012283F87C
:102CB00041207B685B6C43F004027B685A6478684F
:102CC000FFF7BEFE00BF1837BD4680BD80B588B097
:102CD00000AF78607B681B689B68FB617B681B6842
:102CE000A24A934201D1A24B01E04FF040239B68DE
:102CF000BB617B681B685B687B617B681B689B4A68
:102D0000934201D19A4B01E04FF040235B683B6155
:102D10007B685B68B3F5007F04D07B685B68002B41
:102D200040F09980FB6903F00203022B07D17B6915
:102D300003F08003002B02D0786800F025F9BB690E
:102D400003F00103012B07D13B6903F04003002B83
:102D500002D0786800F0C6F9BB6903F04003402B4D
:102D60003AD13B6903F02003002B35D07B681B6808
:102D70007E4A934201D17E4B01E04FF040237A68B6
:102D800012687A498A4201D1794A01E04FF0402223
:102D9000526822F060025A607B681B687A68126889
:102DA000526822F0A0025A600023FB607B681B6817
:102DB000DB68FB607B681B689B68FB60FB687B686B
:102DC000012283F841207B685B6C43F002027B6840
:102DD0005A647868FFF734FEFB6903F00803082B98
:102DE00040F0BE807B6903F02003002B00F0B88028
:102DF0007B681B687A681268526822F0A0025A60E9
:102E00007B681B68594A934201D1594B01E04FF04E
:102E100040237A68126855498A4201D1544A01E038
:102E20004FF04022526822F060025A600023BB60DB
:102E30007B681B689B68BB60BB687B68012283F86A
:102E400041207B685B6C43F004027B685A647868BD
:102E5000FFF7F6FD84E0BB6903F00203022B07D104
:102E60003B6903F08003002B02D0786800F0BEF8C5
:102E7000FB6903F00103012B07D17B6903F04003D9
:102E8000002B02D0786800F0FBF8FB6903F04003E8
:102E9000402B2FD17B6903F02003002B2AD07B68C5
:102EA0001B687A681268526822F060025A607B6878
:102EB0001B682E4A934201D12D4B01E04FF0402375
:102EC0007A68126829498A4201D1294A01E04FF003
:102ED0004022526822F0A0025A607B68012283F8E7
:102EE00041207B685B6C43F002027B685A6478681F
:102EF000FFF7A6FDBB6903F00803082B31D13B693E
:102F000003F02003002B2CD07B681B68174A9342E8
:102F100001D1174B01E04FF040237A681268134942
:102F20008A4201D1124A01E04FF04022526822F059
:102F3000A0025A607B681B687A681268526822F0A7
:102F400060025A607B68012283F841207B685B6CD9
:102F500043F004027B685A647868FFF771FD00E073
:102F600000BF00BF2037BD4680BD00BF0038004015
:102F70000034004080B483B000AF786000BF0C37ED
:102F8000BD465DF8047B704780B582B000AF7860C5
:102F90007B681A687B685B6A981C796848621B8842
:102FA000D3607B685B8D9BB2013B9AB27B685A858C
:102FB0007B685B8D9BB2002B13D17B681B687A68A2
:102FC0001268526822F0A0025A607B685B8E9BB246
:102FD000002B06D17B68012283F841207868FFF737
:102FE000C9FF00BF0837BD4680BD000080B582B074
:102FF00000AF78607B681B681F4A934201D11F4A6B
:1030000001E04FF040227B685B6A981C7968486257
:103010001B88D3607B685B8D9BB2013B9AB27B6857
:103020005A857B685B8D9BB2002B21D17B681B6826
:10303000114A934201D1114B01E04FF040237A68CD
:1030400012680D498A4201D10C4A01E04FF040223A
:10305000526822F0A0025A607B685B8E9BB2002B04
:1030600006D17B68012283F841207868FFF782FF50
:1030700000BF0837BD4680BD003800400034004026
:1030800080B582B000AF78607B68DB6A991C7A6893
:10309000D1627A681268D26892B21A807B685B8EBD
:1030A0009BB2013B9AB27B685A867B685B8E9BB26F
:1030B000002B13D17B681B687A681268526822F073
:1030C00060025A607B685B8D9BB2002B06D17B68E7
:1030D000012283F841207868FFF74CFF00BF0837D2
:1030E000BD4680BD80B582B000AF78607B68DB6A8A
:1030F000991C7A68D1627A6812681E498A4201D1A5
:103100001D4A01E04FF04022D26892B21A807B68DB
:103110005B8E9BB2013B9AB27B685A867B685B8E62
:103120009BB2002B21D17B681B68124A934201D1CC
:10313000114B01E04FF040237A6812680D498A4232
:1031400001D10D4A01E04FF04022526822F06002A6
:103150005A607B685B8D9BB2002B06D17B68012295
:1031600083F841207868FFF705FF00BF0837BD46A8
:1031700080BD00BF0038004000340040F0B58FB083
:103180000AAF78607B68002B01D101230FE17B68D7
:103190001B68BB607B6893F8BD33DBB2002B06D1A4
:1031A0007B68002283F8BC23786807F0B1FE7B6857
:1031B000032283F8BD23BB68DB6B03F48073002B11
:1031C00002D17B6800221A617B681B68184602F0F6
:1031D000A8FA7B681B683B607E686D4606F11004A8
:1031E0000FCC0FC50FCC0FC594E8030085E8030092
:1031F000331D0ECB386802F07FF90346002B05D053
:103200007B68022283F8BD230123D0E07B681B6822
:103210000021184602F096FA0023FB734AE0FA7B7D
:1032200079681346DB009B1A9B000B443D33012257
:103230001A70FA7B79681346DB009B1A9B000B44DB
:103240003C33FA7B1A70FA7BFB7B98B279681346A1
:10325000DB009B1A9B000B44423302461A80FA7B28
:1032600079681346DB009B1A9B000B443F33002216
:103270001A70FA7B79681346DB009B1A9B000B449B
:10328000443300221A60FA7B79681346DB009B1AEC
:103290009B000B44483300221A60FA7B796813467E
:1032A000DB009B1A9B000B44503300221A60FB7B0F
:1032B0000133FB73FA7B7B685B689A42AFD30023D0
:1032C000FB7344E0FA7B79681346DB009B1A9B0092
:1032D0000B4403F2FD1300221A70FA7B796813463F
:1032E000DB009B1A9B000B4403F5FE73FA7B1A70FC
:1032F000FA7B79681346DB009B1A9B000B4403F2B0
:10330000FF1300221A70FA7B79681346DB009B1AC0
:103310009B000B4403F5017300221A60FA7B796865
:103320001346DB009B1A9B000B4403F5027300223B
:103330001A60FA7B79681346DB009B1A9B000B44EA
:1033400003F5047300221A60FB7B0133FB73FA7BE5
:103350007B685B689A42B5D37B681B683B607E687C
:103360006D4606F110040FCC0FC50FCC0FC594E8C5
:10337000030085E80300331D0ECB386802F00CFA19
:103380000346002B05D07B68022283F8BD2301236E
:103390000DE07B68002283F838207B68012283F8E7
:1033A000BD237B681B68184603F03CFA00231846CF
:1033B0001437BD46F0BD80B584B000AF78607B683F
:1033C0001B68FB607B6893F8BC33012B01D102239F
:1033D00020E07B68012283F8BC237B689B6A012B79
:1033E00009D17B689B69012B05D0FB689B6B43F47B
:1033F0008032FB689A637B681B68184603F0F9F912
:103400007B681B68184602F07BF97B68002283F812
:10341000BC23002318461037BD4680BD90B58DB043
:1034200000AF78607B681B683B623B6AFB617B682E
:103430001B68184603F0A2FA0346002B40F099835C
:103440007B681B68184603F006FA0346002B00F061
:103450008F837B681B68184603F0FDF9034603F071
:103460000203022B07D17B681B687A6812685269D5
:1034700002F002025A617B681B68184603F0EBF900
:10348000034603F40023B3F5002F7BD100237B62B6
:103490007B681B68184603F0F1F9B8626FE0BB6AFD
:1034A00003F00103002B64D07B681B687A6AD2B2F8
:1034B0001146184603F016FAB861BB6903F0010320
:1034C000002B0CD07B6A5A01FB69134403F530636F
:1034D0001A4601239360796A786800F019FEBB6987
:1034E00003F00803002B0CD0796A786800F018FF0D
:1034F0007B6A5A01FB69134403F530631A460823BB
:103500009360BB6903F01003002B08D07B6A5A015B
:10351000FB69134403F530631A4610239360BB69BB
:1035200003F02003002B15D07B681B69012B08D109
:103530007B6818687B6803F571731A46012103F0F4
:1035400063FA7B6A5A01FB69134403F530631A4638
:1035500020239360BB6903F40053002B09D07B6ADE
:103560005A01FB69134403F530631A464FF40053C4
:1035700093607B6A01337B62BB6A5B08BB62BB6A98
:10358000002B8CD17B681B68184603F064F9034656
:1035900003F48023B3F5802F40F0C5807B681B685F
:1035A000184603F085F9B86200237B62B7E0BB6A76
:1035B00003F00103002B00F0AC807B681B687A6A83
:1035C000D2B21146184603F0ABF9B861BB6903F0FB
:1035D0000103002B5CD07B6A03F00F03012202FA87
:1035E00003F37B61FB6903F500631946FB6903F58F
:1035F00000635A6B7B69DB4313404B637B6A5A0160
:10360000FB69134403F510631A46012393607B683A
:103610001B69012B1BD179687A6A1346DB009B1A60
:103620009B000B444833196878687A6A1346DB00BC
:103630009B1A9B00034444331B68194478687A6AD8
:103640001346DB009B1A9B000344483319607B6AD6
:10365000DBB21946786807F0DCFC7B681B69012B3C
:1036600016D17B6A002B13D179687A6A1346DB0086
:103670009B1A9B000B4450331B68002B08D17B68BE
:1036800018687B6803F571731A46012103F0BCF9D1
:10369000BB6903F00803002B08D07B6A5A01FB6961
:1036A000134403F510631A4608239360BB6903F0C3
:1036B0001003002B08D07B6A5A01FB69134403F501
:1036C00010631A4610239360BB6903F04003002B7C
:1036D00008D07B6A5A01FB69134403F510631A464C
:1036E00040239360BB6903F00203002B08D07B6A80
:1036F0005A01FB69134403F510631A4602239360D1
:10370000BB6903F08003002B03D0796A786800F06E
:1037100071FC7B6A01337B62BB6A5B08BB62BB6A7C
:10372000002B7FF444AF7B681B68184603F093F8C6
:10373000034603F00043B3F1004F23D1FB6903F5C7
:1037400000631A46FB6903F500635B6823F001031D
:1037500053607B6893F8F433012B08D17B68002217
:1037600083F8F4230021786800F092FE02E0786884
:1037700007F0C8FC7B681B687A681268526902F01F
:1037800000425A617B681B68184603F064F80346E0
:1037900003F40063B3F5006F12D1FB6903F5006316
:1037A0009B6803F00103012B02D1786807F082FCCB
:1037B0007B681B687A681268526902F400625A6179
:1037C0007B681B68184603F046F8034603F48053F1
:1037D000B3F5805F40F0B080FB6903F500631A46E3
:1037E000FB6903F500635B6823F0010353607B68AA
:1037F0001B681021184602F041F90023FB6238E0F3
:10380000FB6A5A01FB69134403F510631A464FF62D
:103810007F339360FB6A5A01FB69134403F510631D
:103820001946FB6A5A01FB69134403F510631B68D0
:1038300023F400130B60FB6A5A01FB69134403F580
:1038400030631A464FF67F339360FB6A5A01FB6977
:10385000134403F530631946FB6A5A01FB691344AC
:1038600003F530631B6823F400130B60FB6A01331C
:10387000FB627B685A68FB6A9A42C1D8FB6903F510
:1038800000631A46FB6903F50063DB6943F001132B
:10389000D3617B681B6B002B18D0FB6903F50063B9
:1038A0001A46FB6903F50063D3F8843043F00B0339
:1038B000C2F88430FB6903F500631A46FB6903F51F
:1038C00000635B6C43F00B03536417E0FB6903F583
:1038D00000631A46FB6903F500635B6943F4005318
:1038E00043F02B035361FB6903F500631A46FB6940
:1038F00003F500631B6943F00B031361FB6903F5D8
:1039000000631A46FB6903F500631B6823F4FE633A
:1039100013607B6818687B681B69D9B27B6803F504
:1039200071731A4603F070F87B681B687A68126836
:10393000526902F480525A617B681B68184602F093
:103940008AFF034603F40053B3F5005F24D17B687C
:103950001B68184603F020F87B681B68184602F0C5
:10396000EFF803461A467B68DA607B681C6801F052
:10397000C9F901467B68DB68DBB21A46204601F0D4
:103980001DFE786807F06DFB7B681B687A6812681B
:10399000526902F400525A617B681B68184602F0B3
:1039A0005AFF034603F01003102B61D17B681B689C
:1039B0007A681268926922F010029A613B6A1B6A67
:1039C0003B613B6903F00F021346DB009B1A9B002F
:1039D00003F5FC737A6813440433FB603B695B0CAA
:1039E00003F00F03022B24D13A6947F6F07313401A
:1039F000002B35D0FB68D9683B691B099BB2C3F328
:103A00000A039BB21A46386A02F0C6FDFB68DA6800
:103A10003B691B09C3F30A031A44FB68DA60FB68BD
:103A20009A693B691B09C3F30A031A44FB689A614C
:103A300016E03B695B0C03F00F03062B10D17B688B
:103A400003F5717308221946386A02F0A5FDFB6878
:103A50009A693B691B09C3F30A031A44FB689A611C
:103A60007B681B687A681268926942F010029A615A
:103A70007B681B68184602F0EEFE034603F008035D
:103A8000082B0AD1786807F0DEFA7B681B687A6831
:103A90001268526902F008025A617B681B68184676
:103AA00002F0D9FE034603F48013B3F5801F0FD153
:103AB00000237B627B6ADBB21946786807F042FB21
:103AC0007B681B687A681268526902F480125A6136
:103AD0007B681B68184602F0BEFE034603F4001321
:103AE000B3F5001F0FD100237B627B6ADBB219465E
:103AF000786807F015FB7B681B687A681268526962
:103B000002F400125A617B681B68184602F0A3FE9B
:103B1000034603F08043B3F1804F0AD1786807F081
:103B200023FB7B681B687A681268526902F0804246
:103B30005A617B681B68184602F08DFE034603F04D
:103B40000403042B15D17B681B685B683B613B69F0
:103B500003F00403002B02D0786807F013FB7B68A6
:103B60001B687A68126851683A690A435A6000E033
:103B700000BF3437BD4690BD80B582B000AF7860DD
:103B80000B46FB707B6893F8BC33012B01D10223F9
:103B900013E07B68012283F8BC237B68FA7883F802
:103BA00038207B681B68FA781146184602F0F9FD48
:103BB0007B68002283F8BC23002318460837BD46E3
:103BC00080BD80B584B000AF7860084611461A46C3
:103BD0000346FB700B463B801346BB700023FB7211
:103BE00097F90330002B0FDAFB7803F00F0213462E
:103BF000DB009B1A9B0038337A6813440433FB6064
:103C0000FB6801225A700FE0FB7803F00F021346A5
:103C1000DB009B1A9B0003F5FC737A6813440433A2
:103C2000FB60FB6800225A70FB7803F00F03DAB2E6
:103C3000FB681A703A88FB689A60FB68BA78DA7099
:103C4000FB685B78002B04D0FB681B789AB2FB689A
:103C5000DA80BB78022B02D1FB6800221A717B68E4
:103C600093F8BC33012B01D102230EE07B680122C3
:103C700083F8BC237B681B68F968184601F085FF50
:103C80007B68002283F8BC23FB7A18461037BD46B8
:103C900080BD80B584B000AF78600B46FB7097F9AB
:103CA0000330002B0FDAFB7803F00F021346DB0022
:103CB0009B1A9B0038337A6813440433FB60FB681B
:103CC00001225A700FE0FB7803F00F021346DB006D
:103CD0009B1A9B0003F5FC737A6813440433FB6062
:103CE000FB6800225A70FB7803F00F03DAB2FB681E
:103CF0001A707B6893F8BC33012B01D102230EE0CC
:103D00007B68012283F8BC237B681B68F96818462E
:103D100001F0C6FF7B68002283F8BC23002318460D
:103D20001037BD4680BD80B586B000AFF8607A60C0
:103D30003B600B46FB72FB7A03F00F021346DB007D
:103D40009B1A9B0003F5FC73FA68134404337B61F0
:103D50007B697A68DA607B693A685A617B6900221C
:103D60009A617B6900225A70FB7A03F00F03DAB282
:103D70007B691A70FB681B69012B02D17A687B6929
:103D80001A61FB7A03F00F03002B09D1FB68186856
:103D9000FB681B69DBB21A46796902F065FA08E034
:103DA000FB681868FB681B69DBB21A46796901F089
:103DB000FFFF002318461837BD4680BD80B483B08E
:103DC00000AF78600B46FB70FB7803F00F02796858
:103DD0001346DB009B1A9B000B4403F505731B681D
:103DE00018460C37BD465DF8047B704780B586B039
:103DF00000AFF8607A603B600B46FB72FB7A03F021
:103E00000F021346DB009B1A9B003833FA681344F9
:103E100004337B617B697A68DA607B693A685A614E
:103E20007B6900229A617B6901225A70FB7A03F058
:103E30000F03DAB27B691A70FB681B69012B02D190
:103E40007A687B691A61FB7A03F00F03002B09D1B2
:103E5000FB681868FB681B69DBB21A46796902F0D7
:103E600003FA08E0FB681868FB681B69DBB21A46B6
:103E7000796901F09DFF002318461837BD4680BDC3
:103E800080B584B000AF78600B46FB70FB7803F020
:103E90000F027B685B689A4201D9012350E097F9D1
:103EA0000330002B0FDAFB7803F00F021346DB0020
:103EB0009B1A9B0038337A6813440433FB60FB6819
:103EC00001225A700DE0FA781346DB009B1A9B0022
:103ED00003F5FC737A6813440433FB60FB6800222B
:103EE0005A70FB6801229A70FB7803F00F03DAB274
:103EF000FB681A707B6893F8BC33012B01D1022355
:103F00001EE07B68012283F8BC237B681B68F9688C
:103F1000184602F06AFBFB7803F00F03002B0AD16E
:103F20007B6818687B681B69D9B27B6803F571737D
:103F30001A4602F069FD7B68002283F8BC23002347
:103F400018461037BD4680BD80B584B000AF78609C
:103F50000B46FB70FB7803F00F027B685B689A42AC
:103F600001D9012342E097F90330002B0FDAFB78E7
:103F700003F00F021346DB009B1A9B0038337A686C
:103F800013440433FB60FB6801225A700FE0FB7896
:103F900003F00F021346DB009B1A9B0003F5FC7332
:103FA0007A6813440433FB60FB6800225A70FB6894
:103FB00000229A70FB7803F00F03DAB2FB681A70E4
:103FC0007B6893F8BC33012B01D102230EE07B68A0
:103FD000012283F8BC237B681B68F968184602F04D
:103FE00076FB7B68002283F8BC2300231846103739
:103FF000BD4680BD80B58AB002AF786039607B680D
:104000001B687B617B693B613A681346DB009B1A46
:104010009B0038337A6813440433FB60FB689A6969
:10402000FB685B699A4201D901236DE0FB685A691C
:10403000FB689B69D31AFB61FB689A68FB699A422B
:1040400002D2FB689B68FB61FB6903339B08BB6181
:104050002BE0FB685A69FB689B69D31AFB61FB681C
:104060009A68FB699A4202D2FB689B68FB61FB6914
:1040700003339B08BB61FB68D9683B68DAB2FB6914
:1040800098B27B681B69DBB200930346786902F043
:104090004EFAFB68DA68FB691A44FB68DA60FB6871
:1040A0009A69FB691A44FB689A613B685A013B694B
:1040B000134403F510639B699AB2BB699A4209D312
:1040C000FB689A69FB685B699A4203D2FB685B698B
:1040D000002BBED1FB685A69FB689B699A4212D8D3
:1040E0003B6803F00F03012202FA03F3BB603B6954
:1040F00003F5006319463B6903F500635A6BBB681F
:10410000DB4313404B63002318462037BD4680BD78
:1041100080B586B000AF786039607B681B687B61D2
:104120007B693B617B693C3304331B68FB603B6804
:104130005A013B69134403F530639B68BB607B689D
:104140001B69012B40F0B380BB6803F00803002B10
:1041500028D0FB68704A93420ED9BB6803F4004331
:10416000002B09D03B685A013B69134403F53063C7
:104170001A464FF400439360786806F01DFF7B6891
:1041800018687B6803F571731A46012102F03CFC44
:104190003B685A013B69134403F530631A46082310
:1041A0009360B3E0BB6803F02003002B09D03B68A9
:1041B0005A013B69134403F530631A462023936088
:1041C000A4E0BB6803F02803002B40F09F80FB684D
:1041D000514A93420FD9BB6803F40043002B0AD025
:1041E0003B685A013B69134403F530631A464FF4A8
:1041F000004393608AE079683A681346DB009B1AB3
:104200009B000B4403F501731A683B6859013B6935
:104210000B4403F530631B69C3F31203D11A7868AA
:104220003A681346DB009B1A9B00034403F50573B1
:10423000196079683A681346DB009B1A9B000B44AF
:1042400003F50273196878683A681346DB009B1A15
:104250009B00034403F501731B68194478683A68AE
:104260001346DB009B1A9B00034403F5027319609D
:104270003B68DBB21946786806F0B0FE3B68002B5D
:1042800044D179683A681346DB009B1A9B000B44C3
:1042900003F504731B68002B38D17B6818687B68B2
:1042A00003F571731A46012102F0AEFB2EE0FB68A4
:1042B0001A4A934224D1BB6803F40043002B0AD06E
:1042C0003B685A013B69134403F530631A464FF4C7
:1042D000004393601AE0BB6803F02003002B08D072
:1042E0003B685A013B69134403F530631A462023A7
:1042F00093603B68DBB21946786806F06FFE05E014
:104300003B68DBB21946786806F068FE0023184661
:104310001837BD4680BD00BF0A30544F0A31544F94
:1043200080B586B000AF786039607B681B687B61C0
:104330007B693B617B693C3304331B68FB603B68F2
:104340005A013B69134403F530639B68BB607B688B
:104350001B69012B13D1FB681F4A934222D9BB680A
:1043600003F40043002B1DD03B685A013B69134402
:1043700003F530631A464FF40043936012E0FB6884
:10438000164A93420ED1BB6803F40043002B09D0B8
:104390003B685A013B69134403F530631A464FF4F6
:1043A00000439360786806F007FEFB680A4A934270
:1043B0000CD97B681B69012B08D17B6818687B6866
:1043C00003F571731A46012102F01EFB0023184603
:1043D0001837BD4680BD00BF0A30544F0A31544FD4
:1043E00080B485B000AF78600B46FB7013463B800D
:1043F0007B681B685B6ABB60FB78002B07D17B681E
:104400001B683A881104BA680A439A6228E07B68FC
:104410001B689B6A1B0CBA681344BB600023FB73C8
:104420000DE07B681A68FB7B40339B0013445B689C
:104430001B0CBA681344BB60FB7B0133FB73FA7B34
:10444000FB78013B9A42ECD37B681968FB78013B0F
:104450003A881004BA68024340339B000B445A6008
:10446000002318461437BD465DF8047B704780B4BE
:1044700083B000AF78600B467B807B681B687A88CE
:104480005A62002318460C37BD465DF8047B70471E
:1044900080B483B000AF78600B46FB7000BF0C3770
:1044A000BD465DF8047B704780B586B000AF78608C
:1044B0007B68002B01D101235BE27B681B6803F062
:1044C0000103002B75D0A34B9B6803F00C03042B56
:1044D0000CD0A04B9B6803F00C03082B12D19D4B12
:1044E0005B6803F48003B3F5800F0BD1994B1B6815
:1044F00003F40033002B5BD07B685B68002B57D143
:10450000012336E27B685B68B3F5803F06D1914AB0
:10451000904B1B6843F4803313601DE07B685B683D
:10452000B3F5A02F0CD18B4A8A4B1B6843F4802330
:104530001360884A874B1B6843F4803313600BE099
:10454000844A844B1B6823F480331360814A814B77
:104550001B6823F4802313607B685B68002B13D0F7
:10456000FBF7F4FF386108E0FBF7F0FF02463B6918
:10457000D31A642B01D90323FBE1764B1B6803F4A8
:104580000033002BF0D014E0FBF7E0FF386108E0C7
:10459000FBF7DCFF02463B69D31A642B01D90323E6
:1045A000E7E16C4B1B6803F40033002BF0D100E013
:1045B00000BF7B681B6803F00203002B63D0654BD0
:1045C0009B6803F00C03002B0BD0624B9B6803F03D
:1045D0000C03082B1CD15F4B5B6803F48003002B9A
:1045E00016D15C4B1B6803F00203002B05D07B68DF
:1045F000DB68012B01D00123BBE15649554B1B68F9
:1046000023F0F8027B681B69DB0013430B603AE080
:104610007B68DB68002B20D04F4B01221A60FBF730
:1046200095FF386108E0FBF791FF02463B69D31A1A
:10463000022B01D903239CE1464B1B6803F00203C4
:10464000002BF0D04349434B1B6823F0F8027B68F2
:104650001B69DB0013430B6015E03F4B00221A601F
:10466000FBF774FF386108E0FBF770FF02463B6917
:10467000D31A022B01D903237BE1364B1B6803F0CD
:104680000203002BF0D17B681B6803F00803002BAA
:1046900030D07B685B69002B16D0304B01221A604A
:1046A000FBF754FF386108E0FBF750FF02463B6917
:1046B000D31A022B01D903235BE1264B5B6F03F076
:1046C0000203002BF0D015E0244B00221A60FBF708
:1046D0003DFF386108E0FBF739FF02463B69D31A1A
:1046E000022B01D9032344E11A4B5B6F03F0020351
:1046F000002BF0D17B681B6803F00403002B00F053
:10470000A0800023FB75134B1B6C03F08053002B20
:104710000FD10023BB600F4A0E4B1B6C43F080533C
:1047200013640C4B1B6C03F08053BB60BB6801230C
:10473000FB750B4B1B6803F48073002B21D1084AD7
:10474000074B1B6843F480731360FBF7FFFE38616F
:1047500011E000BF0038024000004742800E47428F
:1047600000700040FBF7F2FE02463B69D31A022BB1
:1047700001D90323FDE0814B1B6803F48073002BF8
:10478000F0D07B689B68012B06D17D4A7C4B1B6F68
:1047900043F0010313671CE07B689B68052B0CD179
:1047A000774A774B1B6F43F004031367744A744BCB
:1047B0001B6F43F0010313670BE0714A704B1B6FD3
:1047C00023F0010313676E4A6D4B1B6F23F0040344
:1047D00013677B689B68002B15D0FBF7B7FE386129
:1047E0000AE0FBF7B3FE02463B69D31A41F2883276
:1047F000934201D90323BCE0614B1B6F03F002031A
:10480000002BEED014E0FBF7A1FE38610AE0FBF7C5
:104810009DFE02463B69D31A41F28832934201D988
:104820000323A6E0564B1B6F03F00203002BEED1CF
:10483000FB7D012B05D1524A514B1B6C23F0805359
:1048400013647B689B69002B00F092804C4B9B6843
:1048500003F00C03082B5CD07B689B69022B41D1D1
:10486000484B00221A60FBF771FE386108E0FBF745
:104870006DFE02463B69D31A022B01D9032378E06F
:104880003F4B1B6803F00073002BF0D13C497B6861
:10489000DA697B681B6A1A437B685B6A9B011A436F
:1048A0007B689B6A5B08013B1B041A437B68DB6ADD
:1048B0001B0613434B60334B01221A60FBF746FE85
:1048C000386108E0FBF742FE02463B69D31A022B2F
:1048D00001D903234DE02A4B1B6803F00073002B22
:1048E000F0D045E0274B00221A60FBF72FFE38611D
:1048F00008E0FBF72BFE02463B69D31A022B01D9D5
:10490000032336E01E4B1B6803F00073002BF0D12D
:104910002EE07B689B69012B01D1012329E0184B14
:104920009B68FB60FB6803F480027B68DB699A424A
:104930001CD1FB6803F03F027B681B6A9A4215D1C9
:10494000FA6847F6C07313407A68526A93420DD1F1
:10495000FB6803F440327B689B6A9A4206D1FB688D
:1049600003F070627B68DB6A9A4201D0012300E0A9
:10497000002318461837BD4680BD00BF00700040B8
:10498000003802406000474280B584B000AF7860D4
:1049900039607B68002B01D10123CCE0684B1B6898
:1049A00003F00F023B689A420CD2654B3A68D2B2D0
:1049B0001A70634B1B6803F00F023B689A4201D0E8
:1049C0000123B8E07B681B6803F00203002B20D0B2
:1049D0007B681B6803F00403002B05D0594A594B30
:1049E0009B6843F4E05393607B681B6803F0080303
:1049F000002B05D0534A534B9B6843F460439360AC
:104A00005049504B9B6823F0F0027B689B6813432E
:104A10008B607B681B6803F00103002B44D07B682C
:104A20005B68012B07D1474B1B6803F40033002B55
:104A300019D101237FE07B685B68022B03D07B6880
:104A40005B68032B07D13F4B1B6803F00073002BFF
:104A500009D101236FE03B4B1B6803F00203002BDD
:104A600001D1012367E03749364B9B6823F00302ED
:104A70007B685B6813438B60FBF768FDF8600AE0B6
:104A8000FBF764FD0246FB68D31A41F28832934279
:104A900001D903234FE02B4B9B6803F00C027B688A
:104AA0005B689B009A42EBD1254B1B6803F00F0219
:104AB0003B689A420CD9224B3A68D2B21A70204B0A
:104AC0001B6803F00F023B689A4201D0012332E0D9
:104AD0007B681B6803F00403002B08D01949194BAD
:104AE0009B6823F4E0527B68DB6813438B607B6830
:104AF0001B6803F00803002B09D01249114B9B6877
:104B000023F460427B681B69DB0013438B6000F079
:104B100021F801460B4B9B681B0903F00F030A4A5F
:104B2000D35C21FA03F3094A1360094B1B6818464A
:104B300006F030F8002318461037BD4680BD00BF90
:104B4000003C024000380240ACBA000820010020BE
:104B5000000000202DE9F04F8FB000AF0023FB6272
:104B600000237B630023BB6200233B63624B9B6893
:104B700003F00C03042B07D0082B08D0002B40F0C7
:104B8000B2805E4B3B63B1E05D4B3B63AEE05A4BA2
:104B90005B6803F03F03FB62574B5B6803F48003E1
:104BA000002B4ED0544B5B689B094FF0000440F241
:104BB000FF114FF0000201EA030102EA04020B4672
:104BC000144660017862786A40EAD36078625B01DB
:104BD0003B62D7E908345B1A64EB02044FEA84199C
:104BE00049EA93694FEA8318B8EB030869EB0409B3
:104BF0004FEAC903FB61FB6943EA5873FB614FEA63
:104C0000C803BB61D7E9068918EB010849EB020923
:104C10004FEA49237B617B6943EAD8537B614FEAC2
:104C200048233B61D7E9048940464946FB6A4FF077
:104C300000041A462346FBF7CBFA03460C467B6377
:104C400043E02D4B5B689B094FF0000440F2FF11DD
:104C50004FF0000201EA030102EA04020B46144687
:104C60006001F860F86840EAD360F8605B01BB60FF
:104C7000D7E902345B1A64EB0204A60146EA9366A4
:104C80009D01ED1A66EB0406F3007B607B6843EA46
:104C900055737B60EB003B6097E860006D1846EB56
:104CA00002064FEA862B4BEA955B4FEA852A55466A
:104CB0005E4628463146FB6A4FF000041A462346FA
:104CC000FBF786FA03460C467B630B4B5B681B0CB9
:104CD00003F0030301335B00BB627A6BBB6AB2FB78
:104CE000F3F33B6302E0054B3B6300BF3B6B1846AD
:104CF0003C37BD46BDE8F08F003802400024F40088
:104D000000127A0080B400AF034B1B681846BD4602
:104D10005DF8047B704700BF2001002080B500AF24
:104D2000FFF7F0FF0146054B9B689B0A03F0070362
:104D3000034AD35C21FA03F3184680BD00380240D1
:104D4000BCBA000880B483B000AF786039607B687B
:104D50000F221A60124B9B6803F003027B685A60B3
:104D60000F4B9B6803F0F0027B689A600C4B9B68CA
:104D700003F4E0527B68DA60094B9B68DB0803F4BC
:104D8000E0527B681A61074B1B6803F00F023B6817
:104D90001A6000BF0C37BD465DF8047B704700BF4A
:104DA00000380240003C024080B586B000AF786019
:104DB00000237B6100233B617B681B6803F00103D8
:104DC000002B05D17B681B6803F00403002B35D052
:104DD000624B00221A60FBF7B9FB786108E0FBF731
:104DE000B5FB02467B69D31A022B01D90323B0E03D
:104DF0005B4B1B6803F00063002BF0D158497B68C4
:104E00005B689A017B689B681B071343C1F8843079
:104E1000524B01221A60FBF799FB786108E0FBF71F
:104E200095FB02467B69D31A022B01D9032390E03C
:104E30004B4B1B6803F00063002BF0D07B681B68B2
:104E400003F00203002B00F083800023FB60444A40
:104E5000434B1B6C43F080531364414B1B6C03F0BA
:104E60008053FB60FB683F4A3E4B1B6843F48073F2
:104E70001360FBF76BFB786108E0FBF767FB02460A
:104E80007B69D31A022B01D9032362E0354B1B68DF
:104E900003F48073002BF0D0314B1B6F03F440738D
:104EA0003B613B69002B2FD07B68DB6803F44072C9
:104EB0003B699A4228D02A4B1B6F23F440733B6115
:104EC000294B01221A60284B00221A60244A3B69B0
:104ED0001367234B1B6F03F00103012B14D1FBF766
:104EE00035FB78610AE0FBF731FB02467B69D31A98
:104EF00041F28832934201D903232AE0184B1B6FF9
:104F000003F00203002BEED07B68DB6803F44073F0
:104F1000B3F5407F0DD11249114B9B6823F4F81271
:104F20007B68DB6823F0704323F4407313438B608A
:104F300005E00B4A0A4B9B6823F4F8139360084979
:104F4000074B1A6F7B68DB68C3F30B0313430B67D4
:104F5000002318461837BD4680BD00BF6800474291
:104F60000038024000700040400E474280B485B0D7
:104F700000AF78607B6803221A60114BD3F884304D
:104F80009B09C3F308027B685A600D4BD3F8843049
:104F90001B0F03F007027B689A60094B9B6803F4C0
:104FA000F813FB60064B1B6F03F44072FB681A4357
:104FB0007B68DA6000BF1437BD465DF8047B70473C
:104FC0000038024080B487B000AF786000237B6176
:104FD00000233B610023FB600023BB607B68012B47
:104FE0003DD1224B9B6803F40003FB60FB68002B60
:104FF00004D0012B2FD11E4B7B612FE01B4B5B6834
:1050000003F48003B3F5800F08D1184B5B6803F0FD
:105010003F03184AB2FBF3F33B6107E0134B5B68B5
:1050200003F03F03144AB2FBF3F33B610F4BD3F899
:1050300084309B09C3F308033A6902FB03F3BB60A6
:105040000A4BD3F884301B0F03F00703BA68B2FB96
:10505000F3F37B6102E000237B6100BF00BF7B694B
:1050600018461C37BD465DF8047B70470038024087
:105070000080BB0000127A000024F40080B582B0EA
:1050800000AF78607B68002B01D101231DE07B68B5
:1050900093F83D30DBB2002B06D17B68002283F809
:1050A0003C20786800F015F87B68022283F83D20E8
:1050B0007B681A687B6804331946104600F068F96B
:1050C0007B68012283F83D20002318460837BD463F
:1050D00080BD80B483B000AF786000BF0C37BD46A0
:1050E0005DF8047B704780B485B000AF78607B6862
:1050F0001B687A681268D26842F00102DA607B6845
:105100001B689B6803F00703FB60FB68062B07D056
:105110007B681B687A681268126842F001021A60A4
:10512000002318461437BD465DF8047B704780B5F0
:1051300082B000AF78607B681B681B6903F00203D4
:10514000022B22D17B681B68DB6803F00203022B71
:105150001BD17B681B686FF002021A617B68012219
:105160001A777B681B689B6903F00303002B03D04D
:10517000786800F0EEF805E0786800F0E0F878680C
:1051800000F0F1F87B6800221A777B681B681B69C6
:1051900003F00403042B22D17B681B68DB6803F057
:1051A0000403042B1BD17B681B686FF004021A6197
:1051B0007B6802221A777B681B689B6903F4407343
:1051C000002B03D0786800F0C4F805E0786800F0A0
:1051D000B6F8786800F0C7F87B6800221A777B6819
:1051E0001B681B6903F00803082B22D17B681B682E
:1051F000DB6803F00803082B1BD17B681B686FF08A
:1052000008021A617B6804221A777B681B68DB69D5
:1052100003F00303002B03D0786800F09AF805E050
:10522000786800F08CF8786800F09DF87B680022C0
:105230001A777B681B681B6903F01003102B22D1BF
:105240007B681B68DB6803F01003102B1BD17B68A5
:105250001B686FF010021A617B6808221A777B685E
:105260001B68DB6903F44073002B03D0786800F0FF
:1052700070F805E0786800F062F8786800F073F87C
:105280007B6800221A777B681B681B6903F00103A7
:10529000012B0ED17B681B68DB6803F00103012B37
:1052A00007D17B681B686FF001021A61786805F00E
:1052B000DFF87B681B681B6903F08003802B0ED12D
:1052C0007B681B68DB6803F08003802B07D17B6859
:1052D0001B686FF080021A61786800F003F97B6840
:1052E0001B681B6903F04003402B0ED17B681B68D1
:1052F000DB6803F04003402B07D17B681B686FF02D
:1053000040021A61786800F038F87B681B681B69F6
:1053100003F02003202B0ED17B681B68DB6803F0B1
:105320002003202B07D17B681B686FF020021A61D5
:10533000786800F0CDF800BF0837BD4680BD80B466
:1053400083B000AF786000BF0C37BD465DF8047BCA
:10535000704780B483B000AF786000BF0C37BD46A3
:105360005DF8047B704780B483B000AF786000BF05
:105370000C37BD465DF8047B704780B483B000AF46
:10538000786000BF0C37BD465DF8047B70470000B5
:1053900080B485B000AF786039607B681B68FB60C3
:1053A0007B68404A934213D07B68B3F1804F0FD0A3
:1053B0007B683D4A93420BD07B683C4A934207D0BE
:1053C0007B683B4A934203D07B683A4A934208D1B8
:1053D000FB6823F07003FB603B685B68FA6813436B
:1053E000FB607B682F4A93422BD07B68B3F1804FE0
:1053F00027D07B682C4A934223D07B682B4A934268
:105400001FD07B682A4A93421BD07B68294A93426B
:1054100017D07B68284A934213D07B68274A93426F
:105420000FD07B68264A93420BD07B68254A934273
:1054300007D07B68244A934203D07B68234A934277
:1054400008D1FB6823F44073FB603B68DB68FA68B3
:105450001343FB60FB6823F080023B685B691343E6
:10546000FB607B68FA681A603B689A687B68DA625E
:105470003B681A687B689A627B680A4A934203D049
:105480007B680C4A934203D13B681A697B681A63B4
:105490007B6801225A6100BF1437BD465DF8047B6A
:1054A000704700BF000001400004004000080040B9
:1054B000000C004000040140004001400044014055
:1054C0000048014000180040001C0040002000403F
:1054D00080B483B000AF786000BF0C37BD465DF884
:1054E000047B704780B483B000AF786000BF0C3796
:1054F000BD465DF8047B704784B080B584B000AFD2
:10550000786007F11C0080E80E003B6B012B22D174
:105510007B689B6B23F480327B689A637B68DB68D3
:1055200023F4840323F040037A68D3607B68DB684C
:1055300023F440127B68DA60FB6C012B05D17B6899
:10554000DB6843F480127B68DA60786801F0BEFAA9
:105550000346FB731AE07B68DB6843F040027B681C
:10556000DA60786801F0B2FA0346FB733B6C002BFB
:1055700006D17B689B6B43F480327B689A6305E0BD
:105580007B689B6B23F480327B689A63BB6A012B38
:105590000BD17B689B6843F006027B689A607B684E
:1055A0009B6843F020027B689A60FB7B18461037AB
:1055B000BD46BDE8804004B07047000080B487B0AD
:1055C00000AFF860B9601346FB71FB79022B65D11F
:1055D000BB68414A934206D9BB68404A934202D80D
:1055E0000F237B6162E0BB683C4A934206D9BB68EB
:1055F0003B4A934202D80E237B6157E0BB68384A8E
:10560000934206D9BB68374A934202D80D237B6187
:105610004CE0BB68334A934206D9BB68324A934296
:1056200002D80C237B6141E0BB682F4A934206D924
:10563000BB682E4A934202D80B237B6136E0BB68DD
:105640002A4A934206D9BB68294A934202D80A23C0
:105650007B612BE0BB68264A934206D9BB68254A8A
:10566000934202D809237B6120E0BB68214A934220
:1056700006D9BB68204A934202D808237B6115E013
:10568000BB681D4A934206D9BB681C4A934202D8A4
:1056900007237B610AE006237B6107E0FB79002B8F
:1056A00002D109237B6101E009237B61FB68DB6890
:1056B00023F47052FB68DA60FB68DA687B699B024E
:1056C00003F470531A43FB68DA60002318461C3752
:1056D000BD465DF8047B7047BFACD800BFE1E40075
:1056E000FF23F4007F7306019F491A01FF2C31014B
:1056F0003FA44C01FF356E011FABA601FF47E80137
:1057000080B483B000AF78607B689B6843F001028F
:105710007B689A60002318460C37BD465DF8047B11
:10572000704780B483B000AF78607B689B6823F0DB
:1057300001027B689A60002318460C37BD465DF86D
:10574000047B704780B582B000AF78600B46FB7079
:105750007B68DB6823F0C0427B68DA60FB78012B52
:1057600006D17B68DB6843F000527B68DA600BE0AF
:10577000FB78002B06D17B68DB6843F080427B68B6
:10578000DA6001E0012303E03220FAF7EBFE0023A8
:1057900018460837BD4680BD84B080B586B000AFDE
:1057A000786007F1240080E80E000023FB757B6819
:1057B000FB6000233B6109E07A683B6940339B0052
:1057C000134400225A603B6901333B613B690E2B55
:1057D000F2D9FB6C002B12D17B689B6B43F4001257
:1057E0007B689A637B689B6B23F400227B689A63D7
:1057F0007B689B6B23F480227B689A630BE07B6859
:105800001B6823F400127B681A607B689B6B43F46F
:1058100000227B689A63FB6803F560631A460023E5
:105820001360FB6803F500631A46FB6803F5006329
:105830001B681360BB6B012B0CD1FB6A002B04D1DE
:105840000021786800F062F908E00121786800F032
:105850005DF903E00321786800F058F910217868B9
:1058600000F00CF90346002B01D00123FB7578688A
:1058700000F02AF90346002B01D00123FB75FB68D9
:1058800003F500631A4600231361FB6803F5006308
:105890001A4600235361FB6803F500631A46002390
:1058A000D36100233B6143E03B695A01FB68134429
:1058B00003F510631B6803F00043B3F1004F18D1E8
:1058C0003B69002B0AD13B695A01FB68134403F57D
:1058D00010631A464FF00063136013E03B695A01EE
:1058E000FB68134403F510631A464FF090431360AE
:1058F00008E03B695A01FB68134403F510631A463C
:10590000002313603B695A01FB68134403F51063DD
:105910001A46002313613B695A01FB68134403F5DF
:1059200010631A464FF67F3393603B6901333B6146
:105930007A6A3B699A42B7D800233B6143E03B69EE
:105940005A01FB68134403F530631B6803F00043FE
:10595000B3F1004F18D13B69002B0AD13B695A01C2
:10596000FB68134403F530631A464FF0006313607D
:1059700013E03B695A01FB68134403F530631A4690
:105980004FF09043136008E03B695A01FB681344F1
:1059900003F530631A46002313603B695A01FB6824
:1059A000134403F530631A46002313613B695A011F
:1059B000FB68134403F530631A464FF67F33936058
:1059C0003B6901333B617A6A3B699A42B7D8FB680D
:1059D00003F500631A46FB6803F500631B6923F4B3
:1059E000807313613B6B012B12D1FB6803F50063DD
:1059F0001A46204B1363FB6803F500631A46FB68E5
:105A000003F500631B6B43F4803343F0030313631C
:105A10007B6800229A617B686FF080425A613B6B21
:105A2000002B05D17B689B6943F010027B689A616B
:105A30007B689A69104B13437A689361FB6B002B68
:105A400005D07B689B6943F008027B689A61FB6C18
:105A5000012B07D17B689B6943F0804343F004032B
:105A60007A689361FB7D18461837BD46BDE88040D3
:105A700004B070470001800000383C8080B485B0DD
:105A800000AF786039600023FB603B689B0143F006
:105A900020027B681A61FB680133FB60FB68094ADE
:105AA000934201D9032306E07B681B6903F02003BE
:105AB000202BF0D0002318461437BD465DF8047B38
:105AC000704700BF400D030080B485B000AF786020
:105AD0000023FB607B6810221A61FB680133FB60C6
